:020000040800F2
:10000000000008209D6D0008991B00089B1B00083C
:100010009D1B00089F1B0008A11B0008000000009A
:10002000000000000000000000000000A31B00080A
:10003000A51B000800000000A71B0008A91B000862
:10004000ED6D0008ED6D0008ED6D0008ED6D000828
:10005000ED6D0008ED6D0008ED6D0008ED6D000818
:10006000ED6D0008ED6D0008ED6D0008ED6D000808
:10007000ED6D0008ED6D0008ED6D0008ED6D0008F8
:10008000ED6D0008ED6D0008ED6D0008ED6D0008E8
:10009000ED6D0008ED6D0008ED6D0008ED6D0008D8
:1000A000ED6D0008ED6D0008ED6D0008ED6D0008C8
:1000B000ED6D0008ED6D0008ED6D0008ED6D0008B8
:1000C000ED6D0008ED6D0008ED6D0008ED6D0008A8
:1000D000ED6D0008ED6D0008ED6D0008ED6D000898
:1000E000ED6D0008ED6D0008ED6D0008ED6D000888
:1000F000ED6D0008ED6D0008ED6D0008ED6D000878
:10010000ED6D0008ED6D0008ED6D0008ED6D000867
:10011000ED6D0008ED6D0008ED6D0008ED6D000857
:10012000ED6D0008ED6D0008ED6D0008ED6D000847
:10013000ED6D0008ED6D0008ED6D0008ED6D000837
:10014000ED6D0008ED6D0008ED6D0008B11B0008B5
:10015000ED6D0008ED6D0008ED6D0008ED6D000817
:10016000ED6D0008ED6D0008ED6D0008ED6D000807
:10017000ED6D0008ED6D0008ED6D00080000000059
:10018000ED6D0008ED6D0008ED6D0008ED6D0008E7
:10019000ED6D0008ED6D0008ED6D0008ED6D0008D7
:1001A0000000000000000000ED6D0008ED6D00088B
:1001B000ED6D0008ED6D0008ED6D0008ED6D0008B7
:1001C000ED6D0008ED6D000800000000ED6D000809
:1001D000ED6D0008ED6D0008ED6D0008ED6D000897
:1001E000ED6D0008ED6D0008ED6D0008ED6D000887
:0801F00000000000ED6D0008A5
:100200000348044B834202D0034B03B118477047A5
:10021000F4010020F4010020000000000548064918
:100220000B1AD90F01EBA301491002D0034B03B104
:1002300018477047F4010020F4010020000000007E
:1002400010B5064C237843B9FFF7DAFF044B13B11E
:100250000448AFF300800123237010BDF401002097
:1002600000000000F06D000808B5044B1BB1044904
:100270000448AFF30080BDE80840CFE7000000006D
:10028000F8010020F06D000870B50D4E0D4D761B85
:10029000B61006D00024013455F8043B9847A64216
:1002A000F9D1094E094D761B06F0A2FDB61006D015
:1002B0000024013455F8043B9847A642F9D170BD9B
:1002C000B86E0008B86E0008BC6E0008B86E000872
:1002D000024B0146186800F0B1B800BF00000020D2
:1002E000024B0146186800F053B800BF0000002020
:1002F000F0B4860746D0541E002A3CD0CAB203464A
:1003000002E014F1FF3436D303F8012B9D07F8D136
:10031000032C29D9CDB245EA05250F2C45EA054520
:1003200033D9A4F11006360903F1200707EB0617AD
:1003300003F1100242E9045542E902551032BA4273
:10034000F8D1721C14F00C0F03EB021204F00F062C
:1003500013D0331F23F003030433134442F8045B28
:100360009342FBD106F003042CB1C9B21C4403F83C
:10037000011B9C42FBD1F0BC704734461346002C55
:10038000F3D1F8E714460346C2E71A462646E0E7EB
:1003900000293CD038B551F8043C0C1F002BB8BFE5
:1003A000E418054600F000F9234B1A682AB1A2426E
:1003B0000DD921686018824223D0626028461C60F3
:1003C000BDE8384000F0F2B8A34203D81A4653689B
:1003D000002BF9D111685018A04219D024D82168F7
:1003E0006018834206D0636054602846BDE83840F8
:1003F00000F0DCB8D3E9000301446360216054607D
:10040000F3E7D2E90002014462602160D6E7704759
:1004100020680144501883421160E6D1D3E90003FB
:10042000014453601160E0E70C232B602846BDE8CF
:10043000384000F0BBB800BF10020020F8B5CD1C5A
:1004400025F0030508350C2D38BF0C25002D064678
:1004500033DBA94231D82A4F00F0A6F83A6852B1EE
:1004600013685B1B04D43FE023685B1B29D522463D
:100470005468002CF8D1796800293BD029463046D1
:1004800000F040F8431C28D0C41C24F00304A04210
:1004900005D0211A304600F035F801301DD0256016
:1004A000304600F083F804F10B0020F00700231D14
:1004B000C21A01D01B1AA350F8BD0C2232600020D2
:1004C000F8BD0B2B05D8A242636811D05360E7E753
:1004D000144623601C442560E2E70C233046336059
:1004E00000F064F80020F8BD0B2BF1D853681446D7
:1004F0003B60D5E7304600F005F87860BEE700BF06
:100500001002002038B5074C00230546084623603A
:1005100000F0C6FD431C00D038BD2368002BFBD083
:100520002B6038BD301C00200CB470B59CB020ACE2
:100530000B4E54F8042B0291234606916FF00045B0
:1005400002A901940795CDE9045600F00DF9029B2C
:1005500000221A701CB0BDE8704002B0704700BFA6
:100560000802FFFF0EB430B59CB01FAB0C4C0D4D14
:1005700053F8042B0193014602910691206802A9C9
:100580006FF000440794CDE9044500F0EDF8029BBC
:1005900000221A701CB0BDE8304003B0704700BFA5
:1005A000000000200802FFFF704700BF704700BF37
:1005B0002DE9F0478E681D46AE420C460B68174683
:1005C00036D88046888910F4906F0ED1354618468B
:1005D0002A46394600F0CEFCA2682368961B2B44BD
:1005E000A66023600020BDE8F087D1E9041606EB81
:1005F0004606A3EB010906EBD6766B1C76104B443E
:10060000B342324684BF1E463246430512D51146D8
:100610004046FFF713FF824600B34A46216900F0C7
:100620000FFCA38923F4906343F08003A38106E0C9
:100630002E46CCE7404600F005FD824650B1A6EBC1
:1006400009020AEB09036661C4F810A02360A260E6
:100650002E46BCE721694046FFF79AFE0C23C8F8F6
:100660000030A38943F04003A3814FF0FF30BAE785
:100670002DE9F04F936883B09046002B6DD017683A
:100680008D6882460C460868083743E0A38913F456
:10069000906F2ED0D4E9041505EB4505A0EB010BB6
:1006A00005EBD5750BEB06006D100130A8422A460C
:1006B00084BF05462A465B0536D511465046FFF7EE
:1006C000BDFE00283AD05A462169019000F0B8FBDF
:1006D000A289019B22F4906242F08002A281A5EBE4
:1006E0000B0203EB0B00656123612060A2603546BD
:1006F000B3465A46494600F03DFCD8F80830A26897
:100700002068551B58449E1BA5602060C8F80860EF
:100710001EB3083757E90296AB46002EF9D0AE4219
:10072000B4D23546B346E4E7504600F08BFC0346AE
:100730000028D4D121695046FFF72AFE0C23CAF8BD
:100740000030A389002243F040034FF0FF30A38123
:10075000C8E9012203B0BDE8F08F0020C8F804000A
:1007600003B0BDE8F08F00BF2DE9F04F90468A89B5
:100770009FB014068B46029003D50A69002A00F048
:100780000B81059330238DF8323098F800308E4E6F
:10079000002120220B918DF831200127002B00F041
:1007A0008480252B00F0F680454603E0252B00F0E1
:1007B000868025466B786C1C002BF7D1B4EB080AB9
:1007C00073D04246534659460298FFF7F1FE013076
:1007D0006BD00B9B6A7853440B93002A65D000239F
:1007E0004FF0FF3201340693CDE908338DF85B30CA
:1007F0001C93079205E0069A07FA03F313432C466D
:1008000006932546052215F8011B304600F0C8FA6C
:10081000AA46831B0028EED1069BD90644BF20229E
:100820008DF85B2021781A0744BF2B228DF85B20BE
:100830002A2948D1059A11680432002905927EDBE5
:1008400009916178A51C2E2956D0604C03222046C0
:1008500000F0A6FA002868D0001B069B402404FA8A
:1008600000F00343069305F10108297858488DF8F4
:100870003010062200F094FA002866D0554B002B69
:1008800056D005AB00935A46534B029806A9AFF3D6
:1008900000808146B9F1FF3F07D00B9B4B440B937F
:1008A00098F80030002B7FF47CAFBBF80C305B066F
:1008B00054BF0B984FF0FF301FB0BDE8F08FB4EB82
:1008C000080A8CD07DE7A1F13002092A88BFA24630
:1008D000B9D8099B01E02C460135297803EB830345
:1008E00002EB4303A1F13002092AAA46F3D92E29CB
:1008F00004F102050993A8D19AF801102A292ED1F2
:10090000059B9AF802101A6807920433002A05938F
:100910000AF103050AF1020337DB2C4C03222046BF
:100920009A4600F03DFA002896D1A84655469CE725
:10093000059B073323F0070308330593ADE74942CE
:1009400043F00203099106937BE705AB00935A46F7
:10095000214B029806A900F0D7F881469AE7A1F149
:1009600030020023092A079301D923E0554669780C
:1009700003EB830302EB4303A1F13002092A05F1E3
:10098000010AF3D9023507935FE74FF0FF329A4629
:1009900007925AE7444622E740210393FFF74EFDB2
:1009A000039BCBF80000CBF8100030B14022CBF80D
:1009B0001420E6E6AA46013547E7029A0C231360A5
:1009C0004FF0FF3078E700BF746E00087C6E0008BF
:1009D000806E000800000000B10500082DE9F04716
:1009E0000C4691460A698968DDF820808A42B8BFC2
:1009F0000A46C9F8002094F8431006461F4611B174
:100A00000132C9F80020236899065CD5D9F8002086
:100A10000232C9F80020236813F0060F19461DD1D1
:100A2000E1688A1A002AD8BF194617DD04F1190AAD
:100A3000002505E0E368D9F800209B1AAB420CDDE5
:100A40000123524639463046C047013005F10105C1
:100A5000F0D14FF0FF30BDE8F087216894F84330C3
:100A6000003318BF01238A060AD5E1185A1C30202A
:100A700081F84300224494F8451082F84310023371
:100A800004F1430239463046C0470130E1D02368C3
:100A9000A268216903F00603042B1DD08A4226DDDB
:100AA0004FF00009521A91441A34002501E04D45D7
:100AB0001DDA0123224639463046C047013005F190
:100AC0000105F4D1C5E713F0060F13D094F84330B5
:100AD000003318BF0123D3E7D9F80000E3688A4246
:100AE000A3EB000323EAE379DCDC002BDCDC002051
:100AF000BDE8F087E168D9F800208A1A002AD8BF3B
:100B0000194693DCAAE700BF2DE9F0430C46097EA5
:100B100085B06E29064617460C98984604F1430E98
:100B20006DD039D9732900F0F68044D9752900F0C9
:100B30000481782940F0118178232268DFF858C2B7
:100B400084F845300168150651F8043B016040F116
:100B5000A180D10744BF42F020022260002B00F0A8
:100B600093801022002184F843106068A060002860
:100B7000C0F2C880216821F004012160002B40F000
:100B8000A380002840F0C0807546082A00F0AC80A1
:100B9000AEEB0503236141E0632900F0E5801AD83C
:100BA000002938D0582940F0D88084F845102268B0
:100BB000DFF8E8C1C6E76F2900F0BF80702940F078
:100BC000CC802268DFF8D0C142F020027823226076
:100BD00084F84530B6E7642902D0692940F0BD8029
:100BE00022680368110603F1040557D519680560EA
:100BF0000B46002959DBDFF8A4C10A22B5E70368D8
:100C0000226861691D1D056015061B6802D4500627
:100C100000F1BD801960002375462361CDF8008086
:100C20003B4603AA21463046FFF7D8FE013020D0CC
:100C30002A46236939463046C047013019D0226818
:100C40000398E368920719D51A1A002A16DD04F1F1
:100C50001909002504E0E36803981A1AAA420DDD79
:100C600001234A4639463046C047013005F10105A7
:100C7000F1D14FF0FF3005B0BDE8F0839842B8BF26
:100C8000184605B0BDE8F083226822F020022260F9
:100C9000102267E7500648BF9BB25AE75106A5D518
:100CA000B3F9003005601946A3E76168A1602D2003
:100CB0000029C3F1000384F8430002DB22F00402A0
:100CC0002260DFF8D8C00A22754600E00B46B3FB6D
:100CD000F2F102FB113093421CF8000005F8010DFF
:100CE000F4D2082A7FF454AF2368DB077FF550AFB6
:100CF000626823699A423FF74BAF302305F8013C05
:100D0000013D45E7002BDFD19CF8003084F84230EC
:100D100004F1420539E703686268191D01601D6826
:100D20000021284600F03CF8002832D0401B6060CB
:100D30002061002384F8433070E72268036812F0D2
:100D4000800F03F104051AD01B6805606F290CBFE2
:100D500008220A22DFF844C004E7012384F8421085
:100D6000236104F14205E4E703681A68191D0123B1
:100D7000016004F1420584F842202361D9E712F0B2
:100D8000400F0DBF1B6805601B880560DEE71980FA
:100D900041E76068CCE700BF9C6E0008886E0008E1
:100DA00001F0FF01102A2BDB10F0070F08D010F81C
:100DB000013B013A8B422DD010F0070F42B3F6D120
:100DC000F0B441EA012141EA014122F007047FF039
:100DD00000070023F0E80256083C85EA010586EA90
:100DE000010685FA47F5A3FA87F586FA47F6A5FACC
:100DF00087F68EB9EED1F0BC01F0FF0102F00702D8
:100E000032B110F8013B013A83EA010313B1F8D182
:100E10000020704701387047002D06BF3546033863
:100E2000073815F0010F07D1013015F4807F02BF9C
:100E3000013015F4C03F0130F0BC0138704700BFED
:100E4000844641EA000313F003036DD1403A41D3D5
:100E500051F8043B40F8043B51F8043B40F8043B94
:100E600051F8043B40F8043B51F8043B40F8043B84
:100E700051F8043B40F8043B51F8043B40F8043B74
:100E800051F8043B40F8043B51F8043B40F8043B64
:100E900051F8043B40F8043B51F8043B40F8043B54
:100EA00051F8043B40F8043B51F8043B40F8043B44
:100EB00051F8043B40F8043B51F8043B40F8043B34
:100EC00051F8043B40F8043B51F8043B40F8043B24
:100ED000403ABDD2303211D351F8043B40F8043BC4
:100EE00051F8043B40F8043B51F8043B40F8043B04
:100EF00051F8043B40F8043B103AEDD20C3205D3D4
:100F000051F8043B40F8043B043AF9D2043208D0CB
:100F1000D2071CBF11F8013B00F8013B01D30B883D
:100F200003806046704700BF082A13D38B078DD01B
:100F300010F003038AD0C3F10403D21ADB071CBFED
:100F400011F8013B00F8013B80D331F8023B20F857
:100F5000023B7BE7043AD9D3013A11F8013B00F890
:100F6000013BF9D20B7803704B7843708B78837018
:100F7000604670478842F0B40DD98B1883420AD975
:100F8000841832B1224613F8014D02F8014D9942FE
:100F9000F9D1F0BC70470F2A0ED80346541E002A20
:100FA000F7D001340C44013B11F8012B03F8012F59
:100FB000A142F9D1F0BC704740EA01039B073BD145
:100FC000A2F110073F0901F1200606EB071601F117
:100FD000100300F1100453F8105C44F8105C53F84F
:100FE0000C5C44F80C5C53F8085C44F8085C53F85B
:100FF000045C44F8045C1033B34204F11004EAD1F9
:101000007B1C1B0112F00C0F194402F00F05034466
:1010100015D0043DAD0803EB850C1C1F0E4656F899
:10102000047B44F8047F6445F9D10135AD002B44BD
:10103000294402F00302B1E7541E0346B1E72A46F1
:10104000ACE700BF09B3F8B51446CAB106460D4671
:1010500000F01EF8A04202D32F463846F8BD2146C4
:101060003046FFF7EBF907460028F6D0224629461E
:10107000FFF7E6FE30462946FFF78AF93846F8BD05
:101080002746FFF785F93846F8BD1146FFF7D6B970
:1010900051F8043C181F002BBCBF0B58C0187047F8
:1010A000044A05491368002B08BF0B46184410601A
:1010B0001846704718020020381C002053B94AB95E
:1010C000002908BF00281CBF4FF0FF314FF0FF3050
:1010D00000F06EB9ADF1080C6DE904CE00F006F831
:1010E000DDF804E0DDE9022304B070472DE9F047A4
:1010F000089D04468C46002B40F083808A421746A8
:1011000047D9B2FA82F242B1C2F1200024FA00F0CB
:101110009140974040EA010C94404FEA1748230C55
:10112000BCFBF8F61FFA87FE08FB16C143EA014331
:1011300006FB0EF1994209D9FB1806F1FF3080F049
:101140001981994240F21681023E3B445B1AA4B2D7
:10115000B3FBF8F008FB103344EA034400FB0EFE37
:10116000A64509D93C1900F1FF3380F00581A64559
:1011700040F2028102383C4440EA0640A4EB0E04EF
:1011800000261DB1D4400023C5E900433146BDE827
:10119000F08702B9FFDEB2FA82F2002A50D1CB1BEF
:1011A0004FEA174E1FFA87F80126B3FBFEFC210C0D
:1011B0000EFB1C3341EA034108FB0CF38B4207D9B9
:1011C00079180CF1FF3002D28B4200F2E98084469C
:1011D000C91AA3B2B1FBFEF00EFB101143EA0144A1
:1011E00008FB00F8A04507D93C1900F1FF3302D2F3
:1011F000A04500F2D9801846A4EB080440EA0C4050
:10120000BFE78B4209D9002D00F0B1800026C5E967
:10121000000130463146BDE8F087B3FA83F6002E70
:101220004AD18B4202D3824200F2B880841A61EB29
:10123000030101208C46002DA8D0C5E9004CA5E78C
:10124000C2F1200320FA03F6974001FA02F04FEAB8
:10125000174ED9403043030CB1FBFEF61FFA87F856
:101260000EFB161143EA014306FB08F1994204FA0A
:1012700002F409D9FB1806F1FF3C80F08D809942F9
:1012800040F28A80023E3B445B1A81B2B3FBFEF01F
:101290000EFB103341EA034100FB08F38B4207D9F0
:1012A000791800F1FF3C73D28B4271D9023839446E
:1012B000CB1A40EA064678E7C6F1200C03FA06F49A
:1012C00022FA0CF31C4320FA0CF701FA06F34FEA5A
:1012D000144E21FA0CF11F433B0CB1FBFEF91FFA2F
:1012E00084F80EFB191143EA014109FB08FA8A450B
:1012F00002FA06F200FA06F308D9611809F1FF3084
:1013000048D28A4546D9A9F102092144A1EB0A0134
:10131000BFB2B1FBFEF00EFB101147EA014700FB24
:1013200008F8B84507D9E71900F1FF312ED2B845C2
:101330002CD90238274440EA0940A7EB0807A0FB54
:1013400002894F45C64649461AD317D05DB1B3EB63
:101350000E0267EB010707FA0CFCF2404CEA0202AE
:10136000F740C5E9002700263146BDE8F0872E4644
:1013700028460BE70646E9E61846FDE64345E5D272
:10138000B8EB020E69EB04010138DFE70846D2E74B
:1013900060468DE78146B9E7664675E730464AE71D
:1013A000ACF1020C394413E702383C4424E700BF97
:1013B000704700BF10B584B00024009401940294DB
:1013C000039400F067FD01238DF800308DF8014093
:1013D00001941F228DF8082087228DF809208DF8AE
:1013E0000A408DF80B408DF80C308DF80D308DF8DB
:1013F0000E408DF80F40684600F06EFD042000F0AE
:1014000059FD04B010BD00002DE9F04F8FB000244D
:1014100009940A940B940C940D94664B1A6B42F049
:1014200010021A631A6B02F010020192019A1A6BF1
:1014300042F002021A631A6B02F002020292029A4E
:101440001A6B42F040021A631A6B02F040020392D8
:10145000039A1A6B42F008021A631A6B02F0080230
:101460000492049A1A6B42F004021A631A6B02F097
:1014700004020592059A1A6B42F001021A631A6B74
:1014800002F001020692069A1A6B42F480721A6305
:101490001A6B02F480720792079A1A6B42F080026C
:1014A0001A631B6B03F080030893089B424D22468E
:1014B0000C21284602F06AF8DFF810B122464FF4FA
:1014C0008441584602F062F8DFF804A1224641F652
:1014D0002141504602F05AF8DFF8F89022460421E4
:1014E000484602F053F80C2309934FF00108CDF859
:1014F00028800B940C9409A9284601F051FF43F66B
:101500002343099302270A970B9403260C960A2576
:101510000D9509A9484601F043FF4FF48443099310
:10152000CDF828800B940C9409A9584601F038FF97
:1015300041F621430993CDF828800B940C9409A916
:10154000504601F02DFF4FF4006309930A970B9466
:101550000C960D9509A9194801F022FF1023099353
:101560000A970B940C960D9509A9154801F018FFE0
:10157000CDF824800A970B940C960D9509A9114873
:1015800001F00EFF04230993CDF828800B940C94EE
:1015900009A9484601F004FF282309930A970B94F0
:1015A0000C960D9509A9084801F0FAFE0FB0BDE8A8
:1015B000F08F00BF003802400010024000200240BF
:1015C000001C0240000802400000024000180240D7
:1015D000000C02400004024072B6FEE710B596B05F
:1015E00000241394149415940C940D940E940F9459
:1015F0001094119412942C22214601A8FEF778FE33
:101600002D482E4B0360446084604FF6FF73C36027
:10161000046144618023836100F040FE00283FD1D3
:10162000002313931493159313A9234800F0F6FF96
:10163000002837D160230C934FF6E8530D93002216
:101640000E920F921092119212920CA91A4800F069
:101650008DFE48BB04220CA9174800F087FE28BB6A
:1016600008220CA9144800F081FE08BB0023019356
:1016700002930393049305934FF400520692079349
:1016800008934FF0007209920A930B9301A90A483C
:1016900001F014F870B9084800F01EFB16B010BD38
:1016A000FFF79AFFFFF798FFFFF796FFFFF794FF0A
:1016B000FFF792FFFFF790FFA40200200004014013
:1016C00008B50B480B4B03604FF4E1334360002334
:1016D0008360C36003610C2242618361C361036262
:1016E000436202F00EFB00B908BDFFF775FF00BFB3
:1016F000200200200078004008B50F480F4B03601F
:101700004FF482734360002383604FF47062C260C1
:101710000361012242614FF400728261C36103627E
:10172000436283620722C2620363436305F052F996
:1017300000B908BDFFF750FFF0020020003C004058
:1017400000B595B03422002107A8FEF7D1FD002393
:1017500002930393049305930693244B1A6C42F06F
:1017600080521A641B6C03F080530093009B204B43
:101770001A6842F440421A601B6803F44043019324
:10178000019B012307934FF48033089302230D93A9
:101790004FF480020E9219220F924FF4D8721092D9
:1017A000119309221292139307A800F0CFFFB0B94A
:1017B00001F0FCFEA8B90F23029302230393002338
:1017C00004934FF4A05305934FF4805306930721DD
:1017D00002A801F02DFA30B915B05DF804FBFFF74F
:1017E000FBFEFFF7F9FEFFF7F7FE00BF00380240EF
:1017F000007000402DE9F04194B0FFF7DBFD01F0EF
:1018000039FFFFF79DFFFFF7FFFDFFF7E7FEFFF74B
:1018100057FF03F043FEFFF76FFFD54C204600F063
:101820006FFC0021204600F051FE0421204600F00C
:101830004DFE0821204600F049FE236848F6B80214
:101840005A639A63DA63CB4C00224FF480612046DE
:1018500001F09CFE00224FF40061204601F096FE4C
:1018600000224FF48051204601F090FEC24D01222B
:101870004FF40071284601F089FE01222021204604
:1018800001F084FE0A2001F013FFBC4E0122042166
:10189000304601F07BFE01220821304601F076FE41
:1018A00000224FF48041284601F070FE01221146CB
:1018B000204601F06BFE4FF47A7001F0F9FE6423CC
:1018C0000622AF49AF4802F076F9AF4B10AC0FCB10
:1018D00084E80F001021204603F0BAFE4FF47A701E
:1018E00001F0E6FE00240D940E940F9406940794E4
:1018F000089409940A94059455228DF81420AA227C
:101900008DF8152044F20102ADF82C204FF440422E
:10191000ADF82E204FF6FF71ADF83010ADF8322043
:101920001CE0944D00220121284601F02FFE40F6D4
:1019300096230093012306AA02EB44020BA901EBB4
:101940004401924805F0BAF801221146284601F0F8
:101950001DFE012001F0ACFE631CDCB2032CE0D9BB
:10196000BDF81E60C6F30D06F5E0824D0022012190
:10197000284601F00BFE40F696230093012306AAA9
:1019800002EB44020BA901EB4401804805F096F8F4
:1019900001221146284601F0F9FD012001F088FEE0
:1019A0000134E4B2032CE0D9BDF81E40C4F30D04A9
:1019B000B442C0F0D680A41BA4B2230A8DF816301E
:1019C0008DF817404FF6FF73042205A96D4802F009
:1019D000F2F8012001F06CFE6D4D2246294602A866
:1019E000FEF7C0FD0A2102A803F032FE012001F03B
:1019F0005FFE3246294602A8FEF7B4FD0A2102A87E
:101A000003F026FE012001F053FE102110A803F080
:101A10001FFE584C00224FF48061204601F0B6FDB5
:101A200001224FF40061204601F0B0FD01224FF485
:101A30008051204601F0AAFDDFF83481D8F800304B
:101A400000255D6348F6B8079F63DD63642001F0FD
:101A50002FFE01224FF48061204601F097FD2A46B7
:101A60004FF40061204601F091FD01224FF48051B6
:101A7000204601F08BFDD8F800305F639D63DD6385
:101A8000642001F015FE01224FF48061204601F030
:101A90007DFD01224FF40061204601F077FD2A46CA
:101AA0004FF48051204601F071FDD8F800305F639B
:101AB0009D63DD63642001F0FBFD2A464FF48061E5
:101AC000204601F063FD01224FF40061204601F041
:101AD0005DFD01224FF48051204601F057FDD8F8FA
:101AE00000305D639D63DF63642001F0E1FD01224E
:101AF0004FF48061204601F049FD2A464FF4006111
:101B0000204601F043FD01224FF48051204601F0B0
:101B10003DFDD8F800305D639D63DF63642001F014
:101B2000C7FD01224FF48061204601F02FFD012204
:101B30004FF40061204601F029FD2A464FF4805100
:101B4000204601F023FDD8F800305D639F63DD631C
:101B5000642001F0ADFD04210E4801F01DFD0024BC
:101B600020E7A41BA4B204F58044A4B225E700BF7B
:101B7000A4020020000C02400018024000100240A5
:101B8000086E000820020020186E0008F0020020F5
:101B9000106E000800040240FEE7FEE7FEE7FEE7E5
:101BA000FEE770477047704708B501F06FFD08BD4C
:101BB00008B5024802F092FA08BD00BF2C180020B8
:101BC00082B00A4B1A6C42F080521A641A6C02F00E
:101BD00080520092009A5A6C42F480425A645B6CC4
:101BE00003F480430193019B02B070470038024028
:101BF0002DE9F04188B000230393049305930693E5
:101C000007930268264B9A4202D008B0BDE8F081E3
:101C100003F5FE331A6C42F400421A641A6C02F4A3
:101C200000420092009A1A6B42F008021A631A6B83
:101C300002F008020192019A1A6B42F004021A6340
:101C40001B6B03F004030293029B402303930225C2
:101C500004954FF00008CDF8148003240694052362
:101C6000079303A90F4801F09BFB4FF40063039314
:101C70000495012305930694062707970A4E03A9A6
:101C8000304601F08DFB4FF4806303930495CDF84B
:101C900014800694079703A9304601F081FBB4E74E
:101CA000003C0040000C0240000802400268094B62
:101CB0009A4200D0704782B003F59A335A6C42F0D2
:101CC00002025A645B6C03F002030193019B02B0B1
:101CD000704700BF0004014000B587B000230193A6
:101CE0000293039304930593026803F1804303F581
:101CF00082339A4202D007B05DF804FB03F59A33B1
:101D00001A6B42F480721A631B6B03F480730093A6
:101D1000009BE02301930223029300230393049387
:101D20000323059301A9024801F03AFBE3E700BF52
:101D30000020024010B5ACB0044600212791289144
:101D400029912A912B91902203A8FEF7D1FA2268BB
:101D5000194B9A4201D02CB010BD4FF4805303931D
:101D600000231A9303A801F03FF808BB134B1A6C29
:101D700042F080421A641A6C02F080420192019A89
:101D80001A6B42F002021A631B6B03F00203029308
:101D9000029B1823279302232893002329930323CC
:101DA0002A930C232B9327A9054801F0F9FAD2E7CF
:101DB000FFF712FCDAE700BF00780040003802406D
:101DC000000402400649CB6823F4E0631B041B0CAB
:101DD000000200F4E0600343024A1A43CA607047FD
:101DE00000ED00E00000FA0530B4154BDB68C3F3EA
:101DF0000223C3F10704042C28BF04241D1D062D53
:101E000014D9033B4FF0FF3505FA04F421EA04012D
:101E1000994005FA03F322EA03031943002807DB7C
:101E20000901C9B2074B195430BC70470023E9E7D8
:101E300000F00F000901C9B2034B1954F4E700BFC9
:101E400000ED00E000E400E014ED00E0002807DB16
:101E500000F01F02400901239340024A42F820305B
:101E6000704700BF00E100E00138B0F1807F0AD286
:101E7000064B5860064AF02182F823100020986033
:101E800007221A6070470120704700BF10E000E091
:101E900000ED00E0BFF35F8F044A536A23F4803300
:101EA0005362034B00225A60704700BF00ED00E010
:101EB00090ED00E040F00100054B5860054A536A80
:101EC00043F480335362BFF34F8FBFF36F8F70477C
:101ED00090ED00E000ED00E04278134B9A6003784B
:101EE000EBB14368104AD360017BC37A1B0643EA17
:101EF0000173817A43EAC143417B43EA8143817B99
:101F000043EA4143C17B43EA0143417A43EA012367
:101F1000017A43EA410301780B4313617047024B96
:101F20000022DA601A61704790ED00E070B4036A35
:101F300023F001030362036A42688569124C2C4056
:101F40000D68254323F002048B6823430F4C104E89
:101F5000B04218BFA0420CBF0124002405D123F0D9
:101F60000803CE68334323F004032CB122F44072FB
:101F70004C6914438A692243426085614A6842631E
:101F8000036270BC704700BF8CFFFEFF0000014081
:101F90000004014070B4036A23F480730362036A8F
:101FA0004268C569144C2C400E68264323F4007324
:101FB0008C6843EA0423114C114DA84218BFA0427B
:101FC0000CBF0124002406D123F40063CD6843EA4A
:101FD000052323F480633CB122F440524C6942EA69
:101FE00004128C6942EA04124260C6614A68C26304
:101FF000036270BC704700BF8CFFFEFF0000014011
:102000000004014070B4036A23F480530362036A3E
:102010004468C5690D4A2A400D6842EA052223F446
:1020200000538D6843EA0533094E0A4DA84218BF94
:10203000B04204D124F480444D6944EA85144460DC
:10204000C2614A680264036270BC7047FF8CFFFE85
:10205000000001400004014070B4036A23F480339F
:102060000362036A4468426D0D4D15400A682A43B5
:1020700023F400338D6843EA05430A4E0A4DA84213
:1020800018BFB04204D124F480344D6944EA0524D9
:10209000446042654A688265036270BC704700BF55
:1020A0008FFFFEFF000001400004014070B4036A8E
:1020B00023F480130362036A4468456D0D4A2A4085
:1020C0000D6842EA052223F400138D6843EA0553A4
:1020D000094E0A4DA84218BFB04204D124F480240E
:1020E0004D6944EA8524446042654A68C2650362DA
:1020F00070BC7047FF8FFFFE0000014000040140EC
:1021000090F83D30DBB2012B3AD1022380F83D300C
:102110000268D36843F00103D36003681A4AB3F13D
:10212000804F18BF93421DD0A2F57C42934219D034
:1021300002F58062934215D002F58062934211D07D
:1021400002F5784293420DD002F57052934209D0C5
:10215000A2F59432934205D01A6842F001021A6047
:10216000002070479968094A0A40062A18BFB2F54C
:10217000803F07D01A6842F001021A6000207047C1
:102180000120704700207047000001400700010057
:1021900070B403683A4CA04214BF00240124B0F18B
:1021A000804F14BF224644F00102AAB9354DA8421F
:1021B00014BF00250125344EB0420DD065B905F19C
:1021C000804505F58235A84214BF0025012506F596
:1021D0000066B04200D01DB123F070034D682B4360
:1021E000002A33D1274A904214BF00220122264DF3
:1021F000A8422BD052BB02F1804202F582329042BB
:1022000014BF0022012205F50065A8421ED0EAB9DC
:102210001E4A904214BF0022012205F59A35A842B9
:1022200014D09AB91A4A904214BF0022012205F52F
:102230000065A8420AD04AB9164A904214BF00224B
:102240000122A5F59635A84200D01AB123F44073B7
:10225000CA68134323F080034A69134303608A6802
:10226000C2620A6882620C4B984214BF234644F053
:1022700001030BB10B6903630123436170BC704719
:1022800000000140000800400004004000440140FC
:1022900000180040002000400004014060B310B569
:1022A000044690F83D3013B3022384F83D302146B4
:1022B00051F8040BFFF76CFF012384F8483084F8D1
:1022C0003E3084F83F3084F8403084F8413084F860
:1022D000423084F8433084F8443084F8453084F840
:1022E000463084F8473084F83D30002010BD80F837
:1022F0003C30FFF7DBFCD7E70120704770B4036A7E
:1023000023F010030362036A42688569144C2C4071
:102310000D6844EA052523F020038C6843EA041382
:10232000104C114EB04218BFA0420CBF0124002433
:1023300006D123F08003CE6843EA061323F040035E
:102340003CB122F440624C6942EA84028C6942EA60
:102350008402426085614A688263036270BC704790
:10236000FF8CFFFE000001400004014038B590F8EA
:102370003C30012B00F0958004460D46012380F887
:102380003C30142A00F28880DFE802F00B86868653
:102390001F86868634868686488686865D868686FD
:1023A00071000068FFF7C2FD2268936943F00803DB
:1023B00093612268936923F004039361226893690F
:1023C00029690B439361002067E00068FFF796FFDF
:1023D0002268936943F4006393612268936923F44C
:1023E0008063936122689369296943EA01239361B9
:1023F000002052E00068FFF7CDFD2268D36943F06A
:102400000803D3612268D36923F00403D3612268EF
:10241000D36929690B43D36100203EE00068FFF7D0
:10242000F1FD2268D36943F40063D3612268D36964
:1024300023F48063D3612268D369296943EA0123C5
:10244000D361002029E00068FFF706FE2268536D83
:1024500043F0080353652268536D23F0040353656A
:102460002268536D29690B435365002015E000680D
:10247000FFF71CFE2268536D43F400635365226826
:10248000536D23F4806353652268536D296943EAD1
:1024900001235365002000E00120002384F83C3034
:1024A00038BD0220FCE710B401F01F01012303FA3C
:1024B00001F4036A23EA04030362036A02FA01F1E6
:1024C0000B4303625DF8044B7047000010B50446EF
:1024D0000846002942D194F83E30DBB2013B18BFD8
:1024E0000123002B40F08F80002862D1022384F862
:1024F0003E30012201462068FFF7D5FF236844499A
:10250000444A934218BF8B4203D15A6C42F40042B2
:102510005A6423683E4AB3F1804F18BF934264D097
:10252000A2F57C42934260D002F5806293425CD077
:1025300002F58062934258D002F57842934254D01B
:1025400002F57052934250D0A2F5943293424CD08F
:102550001A6842F001021A60002055E004290CD0EC
:10256000082911D00C2916D010291BD094F843301B
:10257000DBB2013B18BF0123B3E794F83F30DBB275
:10258000013B18BF0123ACE794F84030DBB2013BBC
:1025900018BF0123A5E794F84130DBB2013B18BF17
:1025A00001239EE794F84230DBB2013B18BF0123C0
:1025B00097E7042809D008280BD00C280DD0102844
:1025C0000FD0022384F8433093E7022384F83F308E
:1025D0008FE7022384F840308BE7022384F84130F0
:1025E00087E7022384F8423083E799680A4A0A4061
:1025F000062A18BFB2F5803F07D01A6842F00102E0
:102600001A60002000E0012010BD0020FCE700BFA0
:1026100000000140000401400700010090F83C3038
:10262000012B45D070B4012380F83C30022380F8A0
:102630003D3003685A689D681E4E1F4CA34218BF68
:10264000B34203D122F470024C68224322F070029C
:102650000C6822435A600368164AB3F1804F18BFD2
:10266000934217D0A2F57C42934213D002F58062C8
:1026700093420FD002F5806293420BD002F578426C
:10268000934207D002F57052934203D0A2F59432E0
:10269000934204D125F080058A6815439D6001238B
:1026A00080F83D30002380F83C30184670BC7047FD
:1026B00002207047000001400004014090F83C30C7
:1026C000012B3CD030B4012380F83C30CB6823F49C
:1026D00040738A68134323F480634A68134323F4E6
:1026E00000630A68134323F480530A69134323F4F5
:1026F00000534A69134323F480438A6A134323F443
:1027000070238A6943EA024302680E4D0E4CA242CE
:1027100018BFAA420CD123F470034C6A43EA045355
:1027200023F08073CC69234323F00073096A0B43C1
:102730005364002380F83C30184630BC70470220B8
:10274000704700BF0000014000040140002800F075
:10275000068270B582B00446036813F0010F29D0D9
:10276000A74B9B6803F00C03042B1AD0A44B9B6867
:1027700003F00C03082B0FD06368B3F5803F40D003
:10278000002B54D19E4B1A6822F480321A601A68CA
:1027900022F480221A6039E0994B5B6813F4800FB1
:1027A000EAD0974B1B6813F4003F03D06368002BFB
:1027B00000F0D781236813F0020F74D0904B9B6810
:1027C00013F00C0F5ED08E4B9B6803F00C03082BAC
:1027D00053D0E368002B00F08980894A136843F0E6
:1027E0000103136000F05EFF0546854B1B6813F084
:1027F000020F72D100F056FF401B0228F5D90320CA
:10280000B4E17F4A136843F48033136063682BB3E9
:1028100000F048FF05467A4B1B6813F4003FC9D10E
:1028200000F040FF401B6428F5D903209EE1B3F57A
:10283000A02F09D0724B1A6822F480321A601A68ED
:1028400022F480221A60E1E76D4B1A6842F480227C
:102850001A601A6842F480321A60D7E700F022FF4B
:102860000546674B1B6813F4003FA3D000F01AFF26
:10287000401B6428F5D9032078E1614B5B6813F4B1
:10288000800FA6D15E4B1B6813F0020F03D0E368E4
:10289000012B40F068815A4A136823F0F80321693C
:1028A00043EAC1031360236813F0080F46D063693D
:1028B00083B3534A536F43F00103536700F0F2FEB2
:1028C00005464F4B5B6F13F0020F37D100F0EAFE65
:1028D000401B0228F5D9032048E1494A136823F038
:1028E000F803216943EAC1031360DCE7444A136833
:1028F00023F00103136000F0D5FE0546404B1B6832
:1029000013F0020FCFD000F0CDFE401B0228F5D906
:1029100003202BE13A4A536F23F00103536700F081
:10292000C1FE0546364B5B6F13F0020F06D000F078
:10293000B9FE401B0228F5D9032017E1236813F0E4
:10294000040F7DD02E4B1B6C13F0805F0BD12C4BF2
:102950001A6C42F080521A641B6C03F0805301938E
:10296000019B012500E00025264B1B6813F4807FA6
:102970000ED0A368012B1FD0002B35D1204B1A6F2E
:1029800022F001021A671A6F22F004021A6718E097
:102990001C4A136843F48073136000F083FE0646FC
:1029A000184B1B6813F4807FE3D100F07BFE801B83
:1029B0006428F5D90320D9E0114A136F43F00103CD
:1029C0001367A36853B300F06DFE06460C4B1B6FF4
:1029D00013F0020F33D100F065FE801B41F2883303
:1029E0009842F3D90320C1E0052B0DD0044B1A6F98
:1029F00022F001021A671A6F22F004021A67E0E758
:102A00000038024000700040604B1A6F42F0040230
:102A10001A671A6F42F001021A67D2E700F042FE0D
:102A200006465A4B1B6F13F0020F08D000F03AFE17
:102A3000801B41F288339842F3D9032096E0FDB918
:102A4000A369002B00F09180504A926802F00C02BA
:102A5000082A59D0022B19D04C4A136823F08073EE
:102A6000136000F01FFE0446484B1B6813F0007F04
:102A700048D000F017FE001B0228F5D9032075E0AE
:102A8000424A136C23F080531364D9E73F4A13681A
:102A900023F08073136000F005FE05463B4B1B6876
:102AA00013F0007F06D000F0FDFD401B0228F5D991
:102AB00003205BE0E369226A1343626A43EA8213FC
:102AC000A26A5208013A43EA0243E26A43EA026315
:102AD000226B43EA02732D4A5360136843F08073FC
:102AE000136000F0DFFD0446284B1B6813F0007FE5
:102AF00006D100F0D7FD001B0228F5D9032035E0F0
:102B0000002033E0002031E0204A5268012B2FD012
:102B100002F48003E1698B422CD102F03F03216A69
:102B20008B4229D1616A47F6C0731340B3EB811F12
:102B300024D102F44031A36A5B08013BB1EB034F9F
:102B40001ED102F07063E16AB3EB016F1AD102F09B
:102B5000E042236BB2EB037F16D1002006E0012098
:102B60007047012002E0012000E0002002B070BDAB
:102B70000120FBE70120F9E70120F7E70120F5E755
:102B80000120F3E70120F1E70120EFE700380240E0
:102B9000F8B5244B9B6803F00C03042B3DD0082BA5
:102BA0003DD1204B5A6802F03F025B6813F4800F5E
:102BB00012D01C4B5968C1F3881100231A48A1FB9D
:102BC0000001FEF77BFA174B5B68C3F30143013347
:102BD0005B00B0FBF3F023E0124B5B68C3F3881398
:102BE0005C010025E41A65F10005AE0146EA946631
:102BF000A701381B66EB0501CC0044EA5074C50000
:102C0000E81844F100018B0243EA90538402204605
:102C100019460023FEF752FAD5E7034800E00348BF
:102C2000F8BD00BF0038024040787D010024F40068
:102C3000002800F0A08070B50D460446524B1B687A
:102C400003F00F038B420BD24F4A136823F00F039C
:102C50000B431360136803F00F038B4240F08D8029
:102C6000236813F0020F17D013F0040F04D0474A63
:102C7000936843F4E0539360236813F0080F04D083
:102C8000424A936843F460439360404A936823F058
:102C9000F003A1680B439360236813F0010F31D058
:102CA0006368012B20D0022B25D0384A126812F01D
:102CB000020F64D035498A6822F0030213438B6007
:102CC00000F0F0FC0646314B9B6803F00C03626891
:102CD000B3EB820F16D000F0E5FC801B41F2883385
:102CE0009842F0D9032045E0284A126812F4003FC8
:102CF000E0D101203EE0254A126812F0007FD9D1D0
:102D0000012037E0204B1B6803F00F03AB420AD9C8
:102D10001D4A136823F00F032B431360136803F05D
:102D20000F03AB422DD1236813F0040F06D0174ACE
:102D3000936823F4E053E1680B439360236813F036
:102D4000080F07D0114A936823F46043216943EACE
:102D5000C1039360FFF71CFF0C4B9B68C3F3031385
:102D60000B4AD35CD8400B4B18600B4B186800F033
:102D70005BFC002070BD012070470120FAE70120B4
:102D8000F8E70120F6E700BF003C024000380240AF
:102D9000286E00086C00002068000020014B1868B5
:102DA000704700BF6C00002008B5FFF7F7FF044B29
:102DB0009B68C3F38223034AD35CD84008BD00BF9D
:102DC00000380240386E000808B5FFF7E7FF044BF3
:102DD0009B68C3F34233034AD35CD84008BD00BFAD
:102DE00000380240386E0008F0B583B0044606682B
:102DF00016F001060DD0BA4B9A6822F400029A60D0
:102E00009A68416B0A439A60436B002B00F05F8124
:102E10000026256815F4002511D0B14AD2F88C306F
:102E200023F44013E16B0B43C2F88C30E36BB3F532
:102E3000801F00F04E81002B00F04D81002523689B
:102E400013F4801F0FD0A64AD2F88C3023F440032D
:102E5000216C0B43C2F88C30236CB3F5800F00F06B
:102E60003C8103B90125236813F0807F00D001263F
:102E700013F0200F40F03681236813F0100F0CD0B0
:102E8000974BD3F88C2022F08072C3F88C20D3F8B3
:102E90008C20A16B0A43C3F88C20236813F4804F65
:102EA00008D08F4AD2F8903023F44033616E0B4340
:102EB000C2F89030236813F4004F08D0884AD2F843
:102EC000903023F44023A16E0B43C2F89030236866
:102ED00013F4803F08D0824AD2F8903023F4401394
:102EE000E16E0B43C2F89030236813F4003F08D022
:102EF0007B4AD2F8903023F44003216F0B43C2F891
:102F00009030236813F0400F08D0754AD2F8903003
:102F100023F00303616C0B43C2F89030236813F075
:102F2000800F08D06E4AD2F8903023F00C03A16CC9
:102F30000B43C2F89030236813F4807F08D0684AAE
:102F4000D2F8903023F03003E16C0B43C2F890309C
:102F5000236813F4007F08D0614AD2F8903023F040
:102F6000C003216D0B43C2F89030236813F4806FC7
:102F700008D05B4AD2F8903023F44073616D0B4364
:102F8000C2F89030236813F4006F08D0544AD2F886
:102F9000903023F44063A16D0B43C2F89030236856
:102FA00013F4805F08D04E4AD2F8903023F4405397
:102FB000E16D0B43C2F89030236813F4005F08D032
:102FC000474AD2F8903023F44043216E0B43C2F8B5
:102FD0009030236813F4800F08D0414AD2F8903023
:102FE00023F08063A16F0B43C2F89030236813F481
:102FF000001F0DD03A4AD2F8903023F00063E16F01
:103000000B43C2F89030E36FB3F1006F00F0D08053
:10301000236813F4802F08D0314AD2F8903023F07F
:103020004073616F0B43C2F89030236813F4000FB4
:1030300009D02B4AD2F8903023F08053D4F8801076
:103040000B43C2F89030236813F0806F09D0244AF4
:10305000D2F8903023F00053D4F884100B43C2F818
:103060009030236813F0006F09D01D4AD2F88C30DD
:1030700023F00073D4F888100B43C2F88C30236817
:1030800013F0805F09D0164AD2F88C3023F08063A9
:10309000D4F88C100B43C2F88C3026B9236813F097
:1030A000007F00F005810E4A136823F080631360EF
:1030B00000F0F8FA06460A4B1B6813F0006F79D04F
:1030C00000F0F0FA801B6428F5D90320F3E0012614
:1030D0009FE60126AFE60125B1E60126C1E600BF65
:1030E00000380240AB4B1A6C42F080521A641B6CE1
:1030F00003F080530193019BA74A136843F4807344
:10310000136000F0CFFA0746A34B1B6813F4807FCF
:1031100006D100F0C7FAC01B6428F5D90320CAE025
:103120009C4B1B6F13F4407315D0226B02F440725A
:103130009A4210D0974B1A6F22F44072196F41F4E3
:1031400080311967196F21F4803119671A671B6F75
:1031500013F0010F12D1236B03F44072B2F5407FDC
:103160001DD08C4A936823F4F813936089490B6F40
:10317000226BC2F30B0213430B677DE600F092FA59
:103180000746844B1B6F13F0020FE4D100F08AFA5C
:10319000C01B41F288339842F3D903208BE07D486D
:1031A000826822F4F8127D4919400A438260DDE703
:1031B00001252DE7236813F0010F13D0636B8BB942
:1031C000744AD2F88430D2F88410606803F4403333
:1031D00043EA801301F070610B43A16843EA017375
:1031E000C2F88430236813F4002F03D0E26BB2F5E9
:1031F000801F06D013F4801F1ED0236CB3F5800F00
:103200001AD1644AD2F88430D2F88410606803F48A
:10321000403343EA8013E06843EA006301F0E04191
:103220000B43C2F88430D2F88C3023F01F03616A5C
:1032300001390B43C2F88C30236813F0807F11D022
:10324000544AD2F88400D2F88410666823691B04BB
:1032500043EA861300F07060034301F0E0410B4342
:10326000C2F88430236813F0007F0DD062682369B0
:103270001B0443EA8213E26843EA0263A26843EA5A
:103280000273444AC2F88430424A136843F08063B0
:10329000136000F007FA06463E4B1B6813F0006F00
:1032A00006D100F0FFF9801B6428F5D9032002E065
:1032B000012D02D0002003B0F0BD364A136823F080
:1032C0008053136000F0EEF90546324B1B6813F093
:1032D000005F06D000F0E6F9401B6428F5D9032012
:1032E000E9E7236813F4002F01D0E26B22B113F455
:1032F000801F1DD0236CDBB9264AD2F88830D2F863
:103300008810606903F4403343EA8013A06943EAFC
:10331000006301F0E0410B43C2F88830D2F88C30F2
:1033200023F4F853A16A013943EA0123C2F88C302F
:10333000236813F4001F03D0E36FB3F1006F13D0C1
:10334000144A136843F08053136000F0ABF904464D
:10335000104B1B6813F0005F19D100F0A3F9001B9C
:103360006428F5D90320A6E70A4AD2F88800D2F8E3
:1033700088106569236A1B0443EA851300F07060B6
:10338000034301F0E0410B43C2F88830D8E7002046
:1033900091E700BF0038024000700040FFFCFF0FC3
:1033A00000230F2B00F2E880F0B482B05EE0866864
:1033B0005F000324BC4026EA0406CC68BC403443CA
:1033C0008460466826EA02064C68C4F300129A40FC
:1033D0003243426058E0DC08083450F8247003F0AF
:1033E000070296000F22B24027EA02070A69B2409C
:1033F0003A4340F824205BE0092200E00022B2407A
:103400003A4302345D4E46F824205D4A9468EA430C
:1034100024EA05064F6817F4801F01D045EA040628
:10342000574CA660E46802EA04064F6817F4001FD0
:1034300001D045EA0406524CE660646802EA0406DC
:103440004F6817F4003F01D045EA04064C4C666013
:10345000246822404E6816F4803F01D045EA0402F9
:10346000474C226001330F2B00F2838001229A40E7
:103470000C6804EA020532EA0404F3D14C6804F053
:103480000304013C012C92D94A6802F00302032A8A
:1034900009D0C4685E000322B24024EA02048A68AC
:1034A000B2402243C2604A6802F00302022A92D06C
:1034B00004685E000322B24024EA02044A6802F073
:1034C0000302B240224302604A6812F4403FC9D06E
:1034D0002C4A546C44F480445464526C02F480428C
:1034E0000192019A9C08A61C244A52F8267003F007
:1034F000030296000F22B24027EA0207224A9042B6
:103500003FF47CAF02F58062904222D002F58062E7
:10351000904220D002F5806290421ED002F5806277
:1035200090421CD002F5806290421AD002F580626F
:10353000904218D002F58062904216D002F5806267
:10354000904214D002F5806290423FF455AF0A22B7
:1035500055E7012253E7022251E703224FE70422F5
:103560004DE705224BE7062249E7072247E70822F5
:1035700045E702B0F0BC7047704700BF003801401B
:10358000003C014000380240000002400AB1816165
:103590007047090481617047436901EA030221EA27
:1035A000030141EA024181617047000010B582B019
:1035B0001B4B1A6C42F080521A641B6C03F0805350
:1035C0000193019B174A136843F48033136000F0A2
:1035D00069F80446134B5B6813F4803F08D100F090
:1035E00061F8001BB0F57A7FF4D9032002B010BD5A
:1035F0000C4A136843F40033136000F053F8044698
:10360000084B5B6813F4003F07D100F04BF8001B38
:10361000B0F57A7FF4D90320E8E70020E6E700BFA1
:10362000003802400070004010B504460E4B187878
:103630004FF47A73B3FBF0F30C4A1068B0FBF3F06D
:10364000FEF712FC68B90F2C01D901200AE0002214
:1036500021464FF0FF30FEF7C7FB054B1C600020F2
:1036600000E0012010BD00BF640000206C000020BD
:103670006800002008B50320FEF7A4FB0F20FFF729
:10368000D3FFFEF79DFA002008BD0000034A116831
:10369000034B1B780B441360704700BF5803002096
:1036A00064000020014B1868704700BF58030020D9
:1036B00038B50446FFF7F6FF0546B4F1FF3F02D0E8
:1036C000044B1B781C44FFF7EDFF401BA042FAD3CC
:1036D00038BD00BF64000020034AD2F8883043F4AC
:1036E0007003C2F88830704700ED00E010B5044662
:1036F00083680269134342691343C2691343016833
:103700000868A04A024013430B602268536823F400
:103710004053E1680B435360A269236A1A4321684E
:103720008B6823F4306313438B602368964A93427B
:1037300019D0964A934229D0954A93423ED0954A51
:10374000934262D0944A934271D0944A934200F0DB
:103750008380934A934200F09480924A934200F00F
:10376000A58010233AE0904BD3F8903003F0030388
:10377000032B09D8DFE803F00204AE0601232DE095
:1037800004232BE0082329E0102327E0864BD3F8FD
:10379000903003F00C030C2B0ED8DFE803F0070D7C
:1037A0000D0D090D0D0D9D0D0D0D0B00002315E0E8
:1037B000042313E0082311E010230FE07A4BD3F821
:1037C000903003F03003202B00F0888019D8002BB4
:1037D00000F08680102B40F085800423E069B0F56E
:1037E000004F00F0AB80082B00F20C81DFE813F0F3
:1037F000E800FB00E6000A01FE000A010A010A01D6
:103800000101302B70D10823E8E7674BD3F89030E3
:1038100003F0C003802B69D005D8002B68D0402B63
:1038200068D10423DAE7C02B66D10823D6E75E4BC4
:10383000D3F8903003F44073B3F5007F5ED006D820
:10384000002B5DD0B3F5807F5CD10423C6E7B3F5D0
:10385000407F59D10823C1E7534BD3F8903003F48C
:103860004063B3F5006F51D006D8002B50D0B3F5AC
:10387000806F4FD10423B1E7B3F5406F4CD10823DB
:10388000ACE7494BD3F8903003F44053B3F5005FF5
:1038900044D006D8002B43D0B3F5805F42D1042337
:1038A0009CE7B3F5405F3FD1082397E73E4BD3F841
:1038B000903003F44043B3F5004F37D005D8BBB385
:1038C000B3F5804F36D1042388E7B3F5404F33D1A9
:1038D000082383E7022381E702237FE702237DE7B2
:1038E00000237BE7102379E7102377E7022375E7AE
:1038F000002373E7102371E710236FE702236DE7BE
:1039000000236BE7102369E7102367E7022365E7CD
:10391000012363E7102361E710235FE702235DE7DC
:1039200000235BE7102359E7102357E7022355E7ED
:10393000002353E7102351E710234FE7082B5BD8F0
:10394000DFE803F005343A5A375A5A5A0900FFF7AC
:103950002BFA002852D06268530803EB4000B0FBFA
:10396000F2F0A0F110024FF6EF739A4248D883B2FA
:1039700023F00F03C0F3420018432368D8600020EF
:1039800045E000BFF369FFEF001001400044004034
:1039900000480040004C004000500040001401402E
:1039A00000780040007C004000380240FFF70CFA2D
:1039B000CFE7FFF7EDF8CCE71748CCE7164802E071
:1039C000FFF7F2F900B3636800EB5300B0FBF3F0CC
:1039D000A0F110024FF6EF739A4217D8236880B215
:1039E000D860002013E0FFF7EFF9EBE7FFF7D0F81E
:1039F000E8E74FF40040E6E7012008E0002006E099
:103A0000012004E0012002E0002000E0012000236A
:103A10006366A36610BD00BF0024F400436A13F080
:103A2000010F06D00268536823F40033816A0B4308
:103A30005360436A13F0020F06D00268536823F400
:103A40008033C16A0B435360436A13F0040F06D0FE
:103A50000268536823F48023016B0B435360436A6D
:103A600013F0080F06D00268536823F40043416B3B
:103A70000B435360436A13F0100F06D0026893683B
:103A800023F48053816B0B439360436A13F0200F40
:103A900006D00268936823F40053C16B0B43936014
:103AA000436A13F0400F0AD00268536823F480136E
:103AB000016C0B435360036CB3F5801F0BD0436A5A
:103AC00013F0800F06D00268536823F40023816C42
:103AD0000B43536070470268536823F4C003416C82
:103AE0000B435360EBE72DE9F84305460F461646B6
:103AF0009946DDF820802C68E46937EA04030CBF9E
:103B000001240024B44253D1B8F1FF3FF3D0FFF7B2
:103B1000C9FDA0EB090040452DD8B8F1000F2AD00F
:103B20002B681A6812F0040FE5D0DA6912F4006FFE
:103B3000E1D04FF400621A622A6852E8003F23F491
:103B4000D07342E800310029F6D12A6802F1080357
:103B500053E8003F23F00103083242E80031002916
:103B6000F3D12023AB67EB67C5F88030002385F8DD
:103B7000743003201DE02A6852E8003F23F4D0731C
:103B800042E800310029F6D12A6802F1080353E81F
:103B9000003F23F00103083242E800310029F3D14D
:103BA0002023AB67EB67002385F87430032000E027
:103BB0000020BDE8F8832DE9F04182B01E46836FF6
:103BC000202B5AD104460D469046B2FA82F35B0987
:103BD000002908BF0123002B53D190F87430012B2A
:103BE00051D0012380F874300023C0F880302123A5
:103BF0008367FFF757FD0746A4F85080A4F852806A
:103C0000A368B3F5805F05D04FF00008002384F867
:103C1000743014E0236913B14FF00008F6E7A846AA
:103C20000025F3E738F8023B2268C3F308039362E8
:103C3000B4F8522092B2013A92B2A4F85220B4F8E9
:103C400052309BB273B100963B4600228021204641
:103C5000FFF749FFC8B9002DE4D015F8012B236800
:103C60009A62E5E700963B46002240212046FFF796
:103C70003AFF60B92023A36700E0022002B0BDE84C
:103C8000F0810120FAE70220F8E70320F6E703209D
:103C9000F4E730B583B004460023C0F88030FFF766
:103CA00001FD054623681B6813F0080F0DD123683A
:103CB0001B6813F0040F16D12023A367E3670020CD
:103CC000206684F8740003B030BD6FF07E4300932B
:103CD000034600224FF400112046FFF704FF00289E
:103CE000E5D00320EFE76FF07E4300932B460022E0
:103CF0004FF480012046FFF7F6FE0028DCD00320B9
:103D0000E1E768B310B50446836F03B32423A367C8
:103D10002268136823F0010313602046FFF7E6FCD6
:103D2000012813D0636ABBB92268536823F4904317
:103D300053602268936823F02A0393602268136813
:103D400043F0010313602046FFF7A3FF10BD80F886
:103D50007430FDF7EFFFD9E72046FFF75FFEE3E79A
:103D6000012070472DE9F04782B0D0F80080C1EB08
:103D7000C10300EB83035A6D1B6D9A4255D8074669
:103D80000C46C1469B1AC1EBC10200EB8202526C89
:103D90009A4200D31A4602F1030A4FEA9A0A15E042
:103DA00006F1030A4FEA9A0AC4EBC40507EB85053E
:103DB000A96C3B7C0093B3B2E2B2404601F0FCF840
:103DC000AB6C3344AB646B6D1E446E6509EB4413FE
:103DD00003F510639B699BB2534512D3C4EBC40235
:103DE00007EB8202516D136D99420AD24BB15B1AF7
:103DF000C4EBC40207EB8202566C9E42D0D31E462F
:103E0000CEE7C4EBC40007EB80073A6D7B6D9A42A6
:103E10000FD804F00F040123A340D8F8344824EA53
:103E20000304C8F83448002000E0012002B0BDE8D7
:103E3000F0870020FAE7F0B58BB0002800F09380FF
:103E40000546046890F8BD332BB3032385F8BD33D2
:103E5000E36B13F4807F01D100232B61286800F00D
:103E600039FE2C4654F8107B6E460FCC0FC60FCC93
:103E70000FC694E8030086E803002B1D0ECB3846DE
:103E800000F072FD044658B1022385F8BD330124C9
:103E900020460BB0F0BD80F8BC3301F007FCD4E73E
:103EA0000021286801F088FA234616E0C3EBC3021C
:103EB00005EB8202012182F83D1082F83C30A2F825
:103EC0004230002182F83F1051649164C3EBC30279
:103ED00005EB820211650133DBB269688B42E5D3E1
:103EE00016E0C4EBC40305EB8303002283F8FD2135
:103EF00083F8FC4183F8FF21C3F80422C3F80822A9
:103F0000C4EBC40305EB8303C3F810220134E4B20D
:103F1000A142E6D82C4654F8107B6E460FCC0FC653
:103F20000FCC0FC694E8030086E803002B1D0ECBD0
:103F3000384600F027FE044660B9002385F8383083
:103F4000012385F8BD336B6A012B08D0286801F086
:103F5000F0F99DE7022385F8BD33012498E7284650
:103F600000F0C8FCF2E7012492E790F8BC33012B83
:103F70000ED010B50446012380F8BC33006800F071
:103F8000A3FD206801F0C7F9002084F8BC0310BD30
:103F90000220704770B504460D460068066C00EBC1
:103FA000411303F530639A682169012911D035491D
:103FB0008E4250D03DB9C5EBC50304EB8303D3F863
:103FC0001032002B58D0E9B2204601F0CFFB002080
:103FD00070BD12F0080F09D02B498E42F7D912F4A8
:103FE000004FF4D04FF400429A60F0E712F0200F37
:103FF00002D020229A60EAE712F0280FE7D1224986
:104000008E4206D912F4004F03D04FF400429A605A
:10401000DDE7C5EBC50204EB8202D2F804121B698E
:10402000C3F31203C91AC2F81412D2F80412D2F858
:1040300008320B44C2F8083215B9D2F8103223B155
:10404000E9B2204601F092FBC1E704F5717201214B
:1040500001F0F4F9F4E712F4004F03D04FF40042FA
:104060009A60B4E712F0200F01D020229A60E9B2E2
:10407000204601F07BFBAAE704F57172002101F0F4
:10408000DDF9A0E70A31544F0A30544F38B50446E1
:1040900003681D6C03EB4113D3F8081B0E4A9542CD
:1040A00007D903F5306311F4004F02D04FF40042FA
:1040B0009A60204601F052FB074B9D4202D92369CA
:1040C000012B01D0002038BD04F571720121206858
:1040D00001F0B4F9F6E700BF0A30544F2DE9F04F74
:1040E00083B004460568284601F062F910B103B0B8
:1040F000BDE8F08F2F460646206801F028F9002819
:10410000F5D0206801F023F910F0020F04D02268E6
:10411000536903F002035361206801F018F910F0AD
:10412000100F15D02268936923F010039361D5F81E
:10413000208008F00F09C8F34343022B00F085806C
:10414000062B00F0AA802268936943F01003936164
:10415000206801F0FCF810F4002F40F0B0802068D7
:1041600001F0F5F810F4802F40F0F480206801F0A1
:10417000EEF80028C0F26081206801F0E8F810F441
:10418000006F0AD0D5F8083813F0010F40F06E81A7
:104190002268536903F400635361206801F0D7F883
:1041A00010F0006F15D02268536903F0006353616B
:1041B00094F8F433002B40F05D81012184F8F4136E
:1041C00023685B6DC3F38303C4F8F833204601F022
:1041D00089FB206801F0BBF810F4805F40F04E814D
:1041E000206801F0B4F810F4005F40F0A681206868
:1041F00001F0ADF810F0080F40F0B781206801F031
:10420000A6F810F4801F40F0B981206801F09FF8F3
:1042100010F4001F40F0BC81206801F098F810F005
:10422000804F40F0BF81206801F091F810F0040F3A
:104230003FF45DAF23685D6815F0040F40F0BB816B
:10424000226853682B43536051E747F6F07318EA2E
:10425000030F3FF478AF4FEA181B4FEAC9030193ED
:10426000C9EBC90A04EB8A0AC8F30A12DAF8081281
:10427000284600F0BFFFCBF30A0BDAF808325B44A4
:10428000CAF80832019BA3EB090304EB8303D3F8BC
:1042900014325B44CAF8143255E7082204F57171F0
:1042A000284600F0A7FFC8F30A18C9EBC90204EBBF
:1042B0008202D2F814324344C2F8143243E7206831
:1042C00001F049F88046B14617E007EB4913012297
:1042D000C3F8082B49462046FFF75CFE1DE007EBBC
:1042E00049130822C3F8082B49462046FFF7CEFEA3
:1042F00016E009F101094FEA5808B8F1000F3FF440
:104300002EAF18F0010FF4D05FFA89F1206801F0A8
:1043100032F8824610F0010FD7D11AF0080FDED123
:104320001AF0100F04D007EB49131022C3F8082B22
:104330001AF0200F04D007EB49132022C3F8082BF2
:104340001AF4005FD5D007EB49134FF40052C3F8BD
:10435000082BCEE7206801F006F88046B1462AE037
:104360005946204601F00EFA1AF0080F04D007EB68
:1043700049130822C3F808291AF0100F04D007EBDC
:1043800049131022C3F808291AF0400F04D007EB94
:1043900049134022C3F808291AF0020F04D007EB92
:1043A00049130222C3F808291AF0800F3FD109F1FE
:1043B00001094FEA5808B8F1000F3FF4D7AE18F0E2
:1043C000010FF4D05FFA89FB5946206800F0DCFF4A
:1043D000824610F0010FC7D009F00F03012101FA46
:1043E00003F2D7F8343823EA0203C7F8343807EB6E
:1043F0004913C3F8081923698B42B1D1C9EBC9032A
:1044000004EB8303596C9A6C0A449A64B9F1000F67
:10441000A6D1C9EBC90304EB83031B6D002B9FD10D
:1044200004F571720121206801F008F898E7494607
:104430002046FFF797FCBAE7D5F8043823F00103CC
:10444000C5F8043894F8F433012B08D0204601F065
:10445000D9F92268536903F0004353618CE60021C7
:1044600084F8F413204601F03DFAF2E7204601F00B
:10447000B1F98DE6204601F0ADF9AAE605F5006830
:10448000D8F8043023F00103C8F804301021206864
:1044900000F026FB1AE007EB46134FF67F31C3F816
:1044A0000819D3F8002922F40012C3F80029C3F830
:1044B000081BD3F8002B22F40012C3F8002BD3F80A
:1044C000002B42F00062C3F8002B01366368B34250
:1044D000E1D8D8F81C3043F00113C8F81C30236B26
:1044E000EBB1D8F8843043F00B03C8F88430D8F827
:1044F000443043F00B03C8F84430D5F8003823F4B7
:10450000FE63C5F8003804F57172217C206800F064
:1045100095FF2268536903F48053536160E6D8F82D
:10452000142042F22B031343C8F81430D8F810308B
:1045300043F00B03C8F81030DFE7206800F06EFF8F
:10454000206800F0E7FBE0602568FEF727FC0146E5
:10455000227B284600F046FA204601F024F9226822
:10456000536903F40053536141E6204601F015F905
:104570002268536903F0080353613FE60021204697
:1045800001F04CF92268536903F4801353613CE64F
:104590000021204601F03CF92268536903F400131E
:1045A000536139E6204601F03FF92268536903F070
:1045B0008043536137E6204601F03CF940E690F82D
:1045C000BC33012B0DD010B50446012380F8BC3359
:1045D00080F83810006800F08EFE002084F8BC03DC
:1045E00010BD02207047F8B507460C4611F0800F49
:1045F00027D101F00F05C5EBC506B60006F5FC7620
:104600000644311DC5EBC50500EB8505002085F886
:10461000FD0104F00F040C708A60CB704A7802B17F
:10462000CC80022B1DD097F8BC33012B1CD001236A
:1046300087F8BC33386800F07DFB002087F8BC03A6
:10464000F8BD01F00F00C0EBC001890038313944DA
:104650000431C0EBC00007EB8000012580F83D501D
:10466000D7E700230B71DEE70220E9E710B5044627
:104670000A4611F0800F20D101F00F00C0EBC003FB
:104680009B0003F5FC732344191DC0EBC00004EB31
:104690008000002380F8FD3102F00F020A7094F8C8
:1046A000BC33012B19D0012384F8BC33206800F0FF
:1046B00089FB002084F8BC0310BD01F00F00C0EBA3
:1046C000C0039B0038332344191DC0EBC00004EB2A
:1046D0008000012380F83D30DEE70220ECE738B5AA
:1046E00001F00F04C4EBC401890001F5FC71014421
:1046F0000431C4EBC40500EB8505C5F80822C5F8F4
:1047000010320023C5F8143285F8FD3185F8FC41DC
:104710000369012B06D064B9DAB2006800F0C0FB6F
:10472000002038BDC4EBC40500EB8505C5F80C229C
:10473000F1E7DAB2006800F053FCF1E701F00F0195
:10474000C1EBC10100EB8101D1F81402704738B50B
:1047500001F00F04C4EBC401890038310144043175
:10476000C4EBC40500EB8505AA642B6500236B65CB
:10477000012385F83D3085F83C400369012B06D0C4
:104780005CB9DAB2006800F08BFB002038BDC4EBE6
:10479000C40500EB8505EA64F2E7DAB2006800F0D0
:1047A0001FFCF2E738B501F00F054268954239D891
:1047B00004460B4611F0800F1FD1C1EBC1018900E7
:1047C00001F5FC7101440431C3EBC30300EB830327
:1047D000002283F8FD2101238B700D7094F8BC3307
:1047E000012B21D0012384F8BC33206800F028FD80
:1047F0008DB1002084F8BC0338BDC5EBC50189002C
:10480000383101440431C5EBC50300EB83030122B9
:1048100083F83D20DFE704F57172217C206800F009
:104820000DFEE6E70120E7E70220E5E701F00F03D0
:104830004268934231D810B5044611F0800F1ED162
:10484000C3EBC301890001F5FC7101440431C3EBE2
:10485000C30200EB8202002082F8FD0100228A7070
:104860000B7094F8BC33012B19D0012384F8BC33AE
:10487000206800F012FD002084F8BC0310BDC3EBDB
:10488000C3018900383101440431C3EBC30200EB9A
:104890008202012082F83D00E0E7012070470220FB
:1048A000ECE730B40468606A19B940EA0240A062DB
:1048B00018E00D46A36A00EB13400023691E8B42EB
:1048C00009D203F1400104EB8101496800EB11407A
:1048D0000133DBB2F2E740EA024005F13F0104EBAD
:1048E00081014860002030BC704703685962002095
:1048F00070470000034602680121C0F8FC13002045
:1049000083F8F403936943F000639361516D024BA4
:104910000B435365704700BF0300001082B00023B3
:104920000193019B013301930E4A934214D803690A
:10493000002BF6DA00230193036943F001030361BE
:10494000019B01330193074A934208D8036913F08E
:10495000010FF5D1002000E0032002B070470320D2
:10496000FBE700BF400D030084B010B5044603A868
:1049700080E80E00089B012B1DD1A36B23F480332C
:10498000A363E268164B1340E360E36823F440132B
:10499000E3600F9B012B09D02046FFF7BFFF069B6A
:1049A000012B14D0BDE8104004B07047E36843F415
:1049B0008013E360F0E7E36843F04003E3602046E0
:1049C000FFF7ACFFA36B43F48033A363E7E7A3686F
:1049D00043F00603A360A36843F02003A360E1E76C
:1049E000BFFFBDFF022A0AD00921C26822F470521B
:1049F000C260C36843EA8123C36000207047204B34
:104A00000B44204A934229D91F4B0B441F4A93421F
:104A100026D91F4B0B441F4A934223D91E4B0B44EC
:104A20001E4A934220D31E4B0B441E4A93421DD96B
:104A30001D4B0B441D4A93421AD31D4B0B441D4A78
:104A4000934217D31C4B0B441C4A934214D31C4B68
:104A50000B441C4A934211D20721C6E70F21C4E739
:104A60000E21C2E70D21C0E70C21BEE70B21BCE7F8
:104A70000A21BAE70921B8E70821B6E70621B4E719
:104A8000405327FFFF340C00401E1BFF3F420F0026
:104A900000DC0BFF7F4F1200808CF9FE20D6130044
:104AA00060B6E5FE5FE3160000D3CEFE40771B0044
:104AB000C05BB3FEC091210000CA91FE2075380092
:104AC000E05459FEE09C4100836843F00103836099
:104AD00000207047836823F0010383600020704743
:104AE00082B000230193019B013301930E4A93424C
:104AF00014D80369002BF6DA00230193890141F0F1
:104B000020010161019B01330193074A934208D8B8
:104B1000036913F0200FF5D1002000E0032002B05C
:104B200070470320FBE700BF400D030082B0002365
:104B30000193019B013301930D4A934212D80369FB
:104B4000002BF6DA0023019310230361019B01334C
:104B50000193074A934208D8036913F0100FF5D167
:104B6000002000E0032002B070470320FBE700BFF5
:104B7000400D0300D0F800381943C0F80018002099
:104B80007047000084B02DE9F843044609A880E886
:104B90000E002546002306E003F1400204EB8202EA
:104BA0000021516001330E2BF6D9DDF84C80B8F1AD
:104BB000000F24D1D4F8043843F00203C4F80438B9
:104BC000A36B23F40013A363236843F04003236023
:104BD000236843F0800323600023C4F8003E04F5FB
:104BE0000066D4F80038C4F800380E9B012B10D1B1
:104BF0000B9B4BB900212046FFF7BCFF0DE0A36BD8
:104C000043F40013A363E7E701212046FFF7B2FF57
:104C100003E003212046FFF7ADFF10212046FFF7F8
:104C20005FFF814608B14FF001092046FFF77EFF84
:104C300008B14FF00109002333617361F3610AE0A9
:104C4000C3B94FF00060C2F8000900220A614FF6B4
:104C50007F328A600133099F9F4210D905EB4312CE
:104C600002F51061D2F800090028E9DB0020C2F843
:104C70000009EAE74FF09040C2F80009E5E7002399
:104C80000AE0BBB14FF09040C2F8000B00220A616D
:104C90004FF67F328A6001339F4210D905EB4312F1
:104CA00002F53061D2F8000B0028EADB0020C2F8E0
:104CB000000BEBE74FF00060C2F8000BE6E733694A
:104CC00023F4807333610023A3616FF08043636139
:104CD0000C9B1BB9A36943F01003A361A2690B4BA2
:104CE0001343A3610F9B1BB1A36943F00803A361A6
:104CF000B8F1010F04D04846BDE8F84304B070474E
:104D0000A269034B1343A361F5E700BF00383C8061
:104D100004000040D0F8083813F0060305D0062B35
:104D200018BF022B03D102207047002070470F20CC
:104D30007047000070B40C784B78012B20D0D0F86D
:104D40001C3804F00F060122B24043EA0243C0F8C7
:104D50001C3800EB4410D0F8003B13F4004F0CD18A
:104D6000D0F8002B8B68C3F30A03C97843EA814368
:104D70001343134A1A43C0F8002B002070BC70473D
:104D8000D0F81C2804F00F06B3409BB21343C0F8C0
:104D90001C3800EB4410D0F8003913F4004FECD16C
:104DA000D0F800298B68C3F30A03C97843EA81432A
:104DB00043EA84541443024B2343C0F80039DCE730
:104DC0000080001030B40B784A78012A24D000EB20
:104DD0004313D3F8002B002A50DBD0F83C580A7854
:104DE00002F00F02012404FA02F225EA0242C0F89E
:104DF0003C28D0F81C28097801F00F018C4022EAE9
:104E00000444C0F81C48D3F8001B234A0A40C3F8E6
:104E1000002B002030BC704700EB4313D3F800296F
:104E2000002A1EDBD0F83C580A7802F00F02012459
:104E300004FA02F292B225EA0202C0F83C28D0F845
:104E40001C28097801F00F018C40A4B222EA040466
:104E5000C0F81C48D3F80019104A0A40C3F80029CA
:104E6000D7E7D3F8002942F00062C3F80029D3F84D
:104E7000002942F08042C3F80029D3E7D3F8002B81
:104E800042F00062C3F8002BD3F8002B42F08042BE
:104E9000C3F8002BA1E700BF0078F3EF007833ECF4
:104EA00070B40B784C78012C24D000EB431000F543
:104EB00030631D693E4C2C401C611D693D4C2C40EB
:104EC0001C614C690CB18C684C611C6944F4002471
:104ED0001C611C698D68C5F312052C431C61012AF5
:104EE00061D0D0F8003B43F00443C0F8003B002001
:104EF00070BC70474C695CBB00EB4314D4F810697C
:104F00002C4D3540C4F81059D4F8105945F40025FB
:104F1000C4F81059D4F81069254D3540C4F810591B
:104F2000012A31D000EB4313D3F8002942F00442A8
:104F3000C3F800294B69002BD9D0D0F834380A784F
:104F400002F00F0101228A401343C0F83438CEE743
:104F500000EB431404F510642669154D35402561B6
:104F60002669144D354025614E698D68AE4200D9E1
:104F70004D61256945F40025256125694E69C6F313
:104F8000120635432561CBE70A691AB100EB4311DC
:104F9000C1F8142900EB4310D0F8002942F0044274
:104FA000C0F80029A3E7CA68002A9AD05A6198E796
:104FB0000000F8FFFFFF07E070B49DF80C4064B9F3
:104FC00003339D08AC4208D200EB023303F5805353
:104FD00051F8046B1E600134F4E7002070BC704788
:104FE000F0B583B00B784C78012C29D000EB43133B
:104FF00003F5306426697C4D3540256126697B4D7B
:10500000354025614D69002D40F0BF8025698E68CF
:10501000C6F3120635432561256945F4002525614F
:10502000012A00F0C780CA78012A00F0C980D3F8AD
:10503000002B42F00442C3F8002B002003B0F0BD67
:105040004C6974BB00EB4314D4F81069674D3540CC
:10505000C4F81059D4F8105945F40025C4F8105973
:10506000D4F81069604D3540C4F81059012A4AD06F
:1050700000EB4313D3F8004944F00444C3F800495B
:10508000CC78012C68D04B69002BD6D0D0F83428CE
:10509000097801F00F040121A1400A43C0F8342827
:1050A000CBE700EB4314D4F810694F4D3540C4F8FA
:1050B0001059D4F810694D4D3540C4F81059D4F842
:1050C00010694D698F683D44013DB5FBF7F5484FC8
:1050D00007EAC5453543C4F81059D4F810594E694C
:1050E000C6F312063543C4F8105904F51064CD78A0
:1050F000012DBBD1256925F0C0452561256945F005
:1051000000552561B2E70A691AB100EB4314C4F8EF
:105110001429CA78012A08D000EB4313D3F80029D8
:1051200042F00442C3F8002987E7D0F8082812F4B7
:10513000807F08D100EB4311D1F8002942F00052E2
:10514000C1F80029E8E700EB4311D1F8002942F04B
:105150008052C1F80029DFE7D0F8084814F4807FB6
:105160000CD1D3F8004944F00054C3F80049009230
:105170008B8A0A78C968FFF71FFF5EE7D3F80049FA
:1051800044F08054C3F80049F1E78E683544013D8E
:10519000B5FBF6F52669164F07EAC5473E4326617B
:1051A00027698E68ADB206FB05F5C5F312053D43D0
:1051B000256135E7CA68002A3FF435AF626132E7FE
:1051C000D0F8082812F4807F06D1D3F8002B42F0E3
:1051D0000052C3F8002B2AE7D3F8002B42F080528C
:1051E000C3F8002B23E700BF0000F8FFFFFF07E034
:1051F0000000F81FF0B482B0074608463E46950806
:1052000002F003020023AB4206D206F58054246864
:1052100040F8044B0133F6E77AB107F580573B6855
:1052200001930025EBB2DC00019BE34000F8013B59
:105230000135013A92B2002AF4D102B0F0BC7047B5
:105240000B784A78012A14D000EB4310D0F8002BD9
:10525000002A06DB2BB1D0F8003B23F08043C0F8D6
:10526000003BD0F8003B43F40013C0F8003B0020A3
:10527000704700EB4310D0F80029002A06DB2BB161
:10528000D0F8003923F08043C0F80039D0F8003955
:1052900043F40013C0F80039E9E70B784A78012A93
:1052A0000ED000EB4310D0F8003B23F40013C0F8FD
:1052B000003BCB78023BDBB2012B15D900207047B5
:1052C00000EB4310D0F8003923F40013C0F8003984
:1052D000CB78023BDBB2012BF0D8D0F8003943F099
:1052E0008053C0F80039E9E7D0F8003B43F0805321
:1052F000C0F8003BE2E7D0F8003823F4FE63C0F8C2
:105300000038D0F80038090101F4FE611943C0F8F3
:10531000001800207047D0F8003E23F00303C0F8C7
:10532000003ED0F8043823F00203C0F8043800200F
:105330007047D0F8003E23F00303C0F8003ED0F8D9
:10534000043843F00203C0F8043800207047426973
:10535000806910407047D0F8183800F50060C069C7
:105360001840000C7047D0F8183800F50060C0698C
:10537000184080B2704700EB4111D1F8082B00F5BE
:10538000006040691040704710B4D0F81048D0F861
:10539000343801F00F02D340DB01DBB2234300EBD2
:1053A000411000F51060806818405DF8044B7047AC
:1053B000406900F00100704738B50546C36823F026
:1053C000C043C360012913D019BBC36843F08043B5
:1053D000C36000240120FEF76BF901342846FFF773
:1053E000E7FF08B1312CF5D9322C14D0002038BD9C
:1053F000C36843F00053C36000240120FEF758F94E
:1054000001342846FFF7D4FF0128EDD0312CF4D920
:10541000EAE70120EBE70120E9E70000D0F80029E6
:10542000054B1340C0F80039D0F8043843F48073BA
:10543000C0F804380020704700F8FFFF10B4046C77
:10544000154B9C4203D9D0F8003B002B16DB0024FF
:10545000C0F8104BD0F8104B44F40024C0F8104BA7
:10546000D0F8104B44F01804C0F8104BD0F8104B93
:1054700044F0C044C0F8104B012903D000205DF86F
:10548000044B7047C0F8142BD0F8003B43F0802346
:10549000C0F8003BF2E700BF0A30544F08B50022C5
:1054A0000F49104800F09DFA70B90F490D4800F0FF
:1054B000B4FA60B90D490B4801F012F950B9094826
:1054C00000F0BFFA48B908BDFCF786F8EDE7FCF735
:1054D00083F8EFE7FCF780F8F1E7FCF77DF8F2E7F7
:1054E000700000205C030020E4000020D0000020B9
:1054F00012230B80004870479C00002004230B807F
:1055000000487047B00000200C230B800048704713
:10551000900000200023934217D230B40BE03734C0
:1055200001F8134000015C00013400250D550133E2
:10553000DBB2934207D2040FB0F1204FEFD23034E8
:1055400001F81340EEE730BC7047704738B50A4B9E
:10555000186804331C6804331B68C01800D138BDB8
:10556000064D0822A91CFFF7D5FF042205F1120100
:105570002046FFF7CFFFF2E720F4F01FB400002031
:1055800008B51A230B80FFF7E1FF014808BD00BFF3
:10559000B400002008B50A4628B90549054800F0BE
:1055A000DAFE034808BD0249024800F0D4FEF8E7DD
:1055B0002C060020406E000810B50A46034C214618
:1055C000034800F0C8FE204610BD00BF2C06002096
:1055D0004C6E000808B50A4628B90549054800F090
:1055E000BAFE034808BD0249024800F0B4FEF8E7DD
:1055F0002C060020586E000808B50A4628B905494F
:10560000054800F0A8FE034808BD0249024800F022
:10561000A2FEF8E72C060020646E00080020704708
:10562000002070470020704710B5064C0022064944
:10563000204601F05CF80549204601F060F80020A2
:1056400010BD00BF5C0300202C1000202C0800209F
:10565000094BD3F8BC32D3F814320BB10120704798
:1056600010B5054C0A460146204601F040F8204698
:1056700001F04BF810BD00BF5C03002070B504467C
:105680000D46074E0146304601F039F8304601F02C
:1056900056F829882046FFF7DBFF002070BD00BFC9
:1056A0005C03002008B5FCF74BF808BD30B5ADB081
:1056B000044600212791289129912A912B9190222B
:1056C00003A8FAF715FE2368B3F1A04F01D02DB05F
:1056D00030BD4FF4001303930023229303A8FDF77A
:1056E00083FB002833D11B4C236B43F0010323635E
:1056F000236B03F001030093009B4FF4C0532793E7
:10570000022328930025299503232A930A232B9308
:1057100027A91148FDF744FE636B43F080036363E0
:10572000636B03F080030193019B636C43F480433C
:105730006364636C03F480430293029B2A46294608
:105740004320FCF751FB4320FCF780FBBFE7FBF74E
:1057500043FFC8E7003802400000024008B500F5EA
:105760007171D0F8000400F081F908BD08B5C1EBF3
:10577000C10300EB8303D3F80822D0F8000400F043
:10578000A1F908BD08B5C1EBC10300EB83039A6C16
:10579000D0F8000400F0CFF908BD08B5D0F8000437
:1057A00000F065FA08BD10B50446C3683BB1022B92
:1057B00001D1012104E0FBF70FFF012100E00021EE
:1057C000D4F8000400F03CFAD4F8000400F00FFA1A
:1057D00010BD000010B50446D0F8000400F033FA04
:1057E0002268D2F8003E43F00103C2F8003E236A6B
:1057F00023B1034A136943F00603136110BD00BFD0
:1058000000ED00E008B5D0F8000400F025FA08BD6E
:1058100008B5D0F8000400F03AFA08BD08B5D0F891
:10582000000400F032FA08BD08B5D0F8000400F01A
:1058300030FA08BD08B5D0F8000400F02CFA08BD15
:1058400002780AB10020704710B503461548C0F829
:105850000034C3F8C4024FF0A04303600623436042
:105860000222C260002303618261C361036243625A
:10587000C3620363FEF7DFFA80B90A4C8021204639
:10588000FFF733F8402200212046FFF70AF8802274
:1058900001212046FFF705F8002010BDFBF79CFE14
:1058A000EBE700BF2C180020D0F8C43211F0800FB5
:1058B00008D101F07F01C1EBC10103EB810191F837
:1058C000FE01704701F07F01C1EBC10103EB8101D3
:1058D00091F83E00704708B5D0F8C402FEF72EFFDD
:1058E00008BD000010B5044611B1012916D010BD45
:1058F000036A5BB92268D2F8003E23F00103C2F8C4
:10590000003ED4F8000400F0A7F9F0E7FFF7CAFE64
:105910000C4A136923F006031361EBE70268D2F81F
:10592000003E43F00103C2F8003ED0F8000400F04E
:105930008AF9236A002BDAD0024A136943F006037E
:105940001361D4E700ED00E0032805D8DFE800F09C
:1059500005040205012070470320704708B5D0F800
:10596000C402FEF702FBFFF7EFFF08BD10B51446B7
:105970001A462346D0F8C402FEF735FEFFF7E4FFCF
:1059800010BD08B5D0F8C402FEF770FEFFF7DCFFCB
:1059900008BD08B5D0F8C402FEF704FFFFF7D4FF36
:1059A00008BD08B5D0F8C402FEF740FFFFF7CCFFF2
:1059B00008BD08B5D0F8C402FEF701FEFFF7C4FF2A
:1059C00008BD08B5D0F8C402FEF7C1FEFFF7BCFF62
:1059D00008BD08B5D0F8C402FEF781FEFFF7B4FF9A
:1059E00008BDC0B108B50346D0F8B80210B1002018
:1059F000C3F8B802D3F8CC0210B10020C3F8CC022F
:105A000009B1C3F8B412012183F89C121A70184628
:105A1000FFF716FF08BD0320704710B582B00023C2
:105A2000ADF8063059B10446C0F8B8128B6A0DF1D2
:105A300006009847C4F8CC02002002B010BD032035
:105A4000FBE708B5FFF78AFF08BD08B5D0F8B83204
:105A500013B11B68984708BD0320FCE708B5D0F8D0
:105A6000B8320BB15B689847002008BD38B50446D2
:105A700000F2AA25284600F02DF90123C4F894323B
:105A8000B4F8B032C4F8983294F8AA1201F01F03A7
:105A9000012B0DD0022B10D02BB101F0800120463C
:105AA000FFF777FF03E02946204600F0DFFA38BD14
:105AB0002946204600F012FBF9E72946204600F06F
:105AC00041FBF4E738B504460D4631BB1346D0F828
:105AD0009422032A01D0084638BDD0F85C11D0F8D2
